:020000040800F2
:10000000D004002001010008CD130008830E000871
:100010006D120008A10B0008352400080000000044
:10002000000000000000000000000000051A0008A9
:10003000C10C000800000000A5180008AD1B000856
:100040001B0100081B0100081B0100081B01000820
:100050001B0100081B0100081B0100081B01000810
:100060001B0100081B0100081B0100081B01000800
:100070001B0100081B0100081B0100081B010008F0
:100080001B0100081B0100081B0100081B010008E0
:100090001B0100081B0100081B0100081B010008D0
:1000A0001B0100085D1E00081B0100081B01000861
:1000B0001B0100081B0100081B0100081B010008B0
:1000C0001B0100081B0100081B0100081B010008A0
:1000D0001B010008612200081B0100081B01000829
:1000E0001B0100081B0100081B010008DFF80CD0F1
:1000F00000F06CFC00480047FD3D0008D0040020E3
:100100000648804706480047FEE7FEE7FEE7FEE7B1
:10011000FEE7FEE7FEE7FEE7FEE7FEE7B11B0008AD
:10012000ED0000082DE9F0410024061B254671F181
:10013000000605DA01240027D0EB070067EB010178
:10014000161E73F1000605DA0027D2EB070201251F
:1001500067EB030300F0BDFA86460E4617469C4641
:10016000AC4204D00025D0EB050E65EB010624B1AE
:100170000020D2EB000760EB030C704631463A4694
:100180006346BDE8F081D2B201E000F8012B491EC0
:10019000FBD270470022F6E710B513460A46044624
:1001A0001946FFF7F0FF204610BD30B50446002089
:1001B000034600E05B1C934203D2E05CCD5C401B35
:1001C000F8D030BDF0B480EA0102D40F4200B2EBA7
:1001D000410F02D20246084611464A0042D0C30DE2
:1001E000DDB2C1F3C752AD1A202D35DAC1F31601C5
:1001F00041F4000204B15242C5F1200602FA06F1B0
:100200002A411044B3EBD05F23D0C4B1012DA0EB41
:10021000C35009DCF0BC4FF0004202EAC352DBB22B
:1002200000F5000000F0C0BA400000F1807000EB63
:10023000C350A0F1807040EAD170490009E049083C
:1002400041EAC071A0EBC35000F50000400800EB8C
:10025000C350F0BC00F09FBA6142012202EB4101A1
:10026000001BF6E7F0BC704781F00041AAE780F080
:100270000040A7E780EA010210B502F00043400009
:1002800022D04A001FD0010E01EB1261C0F35600CC
:10029000C2F3560240F4000042F40002A0FB022028
:1002A00000047F39140400D0401C50EA124001D4ED
:1002B0004000491EC2B20C0604EBD010401C40089E
:1002C000802A02D003E0002010BD20F001000029A8
:1002D00000DA0020184310BD30B480EA010202F0B9
:1002E000004530F0004221F0004013D090B1C30D22
:1002F000D40DC2F31601C0F31600E41A41F4000154
:1003000040F400027D34914201D3641C00E04900B6
:10031000002C02DA30BC002070474FF400000023AC
:10032000914201D3891A034340084FEA4101F7D1B2
:1003300051B1914202D14FF0004105E002D24FF09D
:10034000010101E06FF0010103EBC450284430BC0F
:1003500000F021BA420005D0C0F3C7525242914288
:1003600001DC0020704700EBC15070472DE9FE4FC3
:10037000804681EA0300C00F0C46009021F0004146
:1003800023F00045B8EB0200A94105D240462146C2
:1003900090461C460B46024623F00040104347D0CF
:1003A000270DC7F30A00C3F30A510290401A0190C7
:1003B00040286BDAC3F3130040F4801B0098924688
:1003C00020B10023D2EB030A63EB0B0B01985946D3
:1003D000C0F14002504600F0ADF906460D465046C9
:1003E0005946019A00F0C5F910EB0800614100245C
:1003F00087EA115284EAE7731A4340D0009A62B345
:10040000019A012A4FEA075215DC001B61EB020139
:100410004FF0004202EA0752CDE90042001C41F5CC
:10042000801132462B4600F0FCF903B0BDE8F08F96
:1004300040462146F9E7001B61EB0201001C41F533
:10044000801300185B412018A2F5001747EB030149
:1004500040EAD570B6196D4111E06D084FEA3606D5
:1004600045EAC0754FEA0752001B61EB0201001C10
:1004700041F5801149084FEA3000001951413246D8
:100480002B4603B0BDE8F04F00F0BCB90098012244
:1004900040000023D0EB020263EBE073009821469A
:1004A0004FEAE074B8EB000061EB0401E9E783F088
:1004B00000435BE781F0004158E72DE9FE4F81EAF8
:1004C000030404F0004421F0004100944FF0000BBD
:1004D00023F0004350EA01045ED052EA03045BD0EB
:1004E000C3F30A54C1F30A552C44A4F2F334019423
:1004F000A0FB0254C1F3130141F48011C3F31303B1
:1005000043F4801301FB024400FB034E840A970A64
:1005100044EA815447EA8357A4FB076802958D0A91
:1005200005FB07854FEA932C04FB0C542705029D1D
:100530004FEA065847EA1637B5EB08056EEB070C8D
:10054000870E920E47EA811742EA8312A7FB020147
:10055000B6EB0B0164EB00042B0D43EA0C335E1881
:1005600044EB1C50DA465146E7FB0201C5F3130485
:100570004FEA0B3343EA14534FEA0432019C43EA37
:100580000603A4F10C040294009CCDE900B400F031
:1005900048F903B0BDE8F08F00200146F9E7C10F2C
:1005A00080EAE0700844CA079623002100F0FCB8F6
:1005B00096230022114600F0F7B80EB5C10F80EA6D
:1005C000E0700844CA07002140F233438DE80E0072
:1005D0000A460B4600F025F903B000BD00F00042CA
:1005E00020F00040C10DC0F3160040F400007F2948
:1005F00001DA00207047962903DCC1F19601C8405A
:1006000001E096398840002AF4D04042704720F03B
:100610000040C10DC0F3160040F400007F2901DA4C
:1006200000207047962903DCC1F19601C84070474D
:1006300096398840704770B5C1F30A5201F0004501
:100640000024C1F3130140F2FF3341F480119A42B8
:1006500001DA002070BD40F233439A42A2F23342E5
:1006600003DC524200F075F800E090402C43F1D0DA
:10067000404270BD00F0004230F000400AD0C10D91
:1006800001F56071C0F3160042EA0151C20840074B
:100690001143704700200146704701F0004330B419
:1006A00021F0004150EA010206D00A0DA2F5607265
:1006B000C1F31301002A02DC30BC00207047440F54
:1006C00044EAC104C100E01830BC00EBC25000F0A5
:1006D00062B82DE9F05F0546002092469B468846A9
:1006E0000646814640241BE02846414647462246AE
:1006F00000F02FF853465A46C01A914110D31146C4
:100700001846224600F016F82D1A67EB01084F46EE
:1007100022460120002100F00DF817EB00094E41A0
:10072000201EA4F10104DFDC484631462A46434638
:10073000BDE8F09F202A04DB203A00FA02F10020F5
:1007400070479140C2F1200320FA03F3194390400F
:100750007047202A04DB203A21FA02F0002170477A
:1007600021FA02F3D040C2F1200291400843194619
:100770007047202A06DBCB17203A41FA02F043EA01
:10078000E07306E041FA02F3D040C2F1200291404A
:100790000843194670470029A8BF7047401C49000C
:1007A00008BF20F00100704710B4B0FA80FC00FAD6
:1007B0000CF050EA010404BF10BC704749B1CCF101
:1007C000200421FA04F411FA0CF118BF012121438D
:1007D0000843A3EB0C01CB1D4FEA00614FEA102048
:1007E00042BF002010BC704700EBC35010440029EA
:1007F000A4BF10BC7047401C490008BF20F0010096
:1008000010BC704710B5141E73F1000408DA401CC8
:1008100041F1000192185B411A4301D120F001001F
:1008200010BD2DE9F04D92469B4611B1B1FA81F20F
:1008300002E0B0FA80F220329046FFF77BFF0446D8
:100840000F4640EA0A0041EA0B0153465A46084364
:1008500013D0114653EA010019D0C8F140025046A6
:10086000FFF777FF05460E46504659464246FFF7CA
:1008700061FF084305D0012004E020463946BDE869
:10088000F08D0020054346EAE0762C4337430A9872
:100890006305E40AA0EB08000022FD0A44EA47547D
:1008A0000A3002D500200146E9E701051019694127
:1008B000DDE9084500196941BDE8F04DA2E72DE9E1
:1008C000F04D81EA030404F0004B21F0004514468A
:1008D0004FF0000A23F0004150EA050220D054EA0C
:1008E00001021DD0C5F30A570246C5F31303C1F335
:1008F0001300C1F30A5640F4801543F48013A7EBAC
:100900000608101BD64608F2FD3873EB050002D32B
:1009100008F1010801E092185B41B8F1000F03DA19
:1009200000200146BDE8F08D00204FF480110646FE
:1009300084460EE0171B73EB050705D3121B63EB10
:10094000050306434CEA010C49084FEA30009218AF
:100950005B4150EA0107EDD152EA030012D082EA6E
:10096000040083EA0501084305D0101BAB4106D201
:100970000122002306E000224FF0004302E06FF066
:10098000010253101AEB06004CEB085110EB0A0061
:1009900041EB0B01BDE8F04DFFF734BF70B521F01E
:1009A000004303430CD0C1F30A550024D5EB0405E2
:1009B00064EB0403D617AD1AB34102DB00200146F5
:1009C00070BD201841EB025170BD0000064C074D70
:1009D00006E0E06840F0010394E80700984710340F
:1009E000AC42F6D3FFF786FB306100085061000887
:1009F0002DE9F04D00231A461B1A8A4103DB002023
:100A00000146BDE8F08DC1F30A52C1F3130141F470
:100A100080154FF0000BD10702D100186D41521E16
:100A20000027044640F2FF11384601EB620A3E46B9
:100A30008046024600204FF48011FFF78AFEC2195B
:100A40007141BB1846EB0100B4EB030C75EB000CD5
:100A500004D3E41A65EB000517460E46241908F185
:100A600001006D4180463428E3DDF91946EB0600AC
:100A7000091BA84103D24FF0FF32134601E00022C8
:100A800013461BEB070046EB0A51BDE8F04DFFF79C
:100A9000B9BE0000414890F9001090F901003231D0
:100AA0003230652979D2DFE801F0707070707070B3
:100AB0007070707070707070707070707070707036
:100AC0007070707070707070707070707070707026
:100AD000707033333333333333333333333333336C
:100AE000333333333333337474747474747474748D
:100AF00074747474747474747474747474747474B6
:100B00007474747474747474747474747474740019
:100B1000652842D2DFE800F03737373737373737C5
:100B20003737373737373737373737373737373755
:100B30003737373737373737373737373737373745
:100B40003333333333333333333333333333333375
:100B5000333333333335353535353535353535354F
:100B60003535353535353535353535353535353535
:100B7000353535353535353535353535350000F0D4
:100B8000F7BF00F021BF00F001BF642805D800F0D6
:100B900011BE642801D800F00DBE7047640000202B
:100BA000FEE700002DE9F0412D482E4EB0F900106F
:100BB000306801F0A9FCDFF8B080C8F808002B48C5
:100BC000B0F900102A48B0F9000001F035FC08F136
:100BD0000C04A060A4F12C0595F9000001F034FB91
:100BE000A4F1140107464860A168D8F80800FFF78F
:100BF000E9FA80463946FFF7E5FAFFF7EFFC04B261
:100C0000AC8040463946FFF72FFBFFF7E7FC00B208
:100C1000E880422C02DB4221A98004E06FF0410110
:100C20008C4200DCA980402802DB4020E88004E000
:100C30006FF03F01884200DCE9800E49306888424D
:100C400002DA0D49884202D30020A880E880B5F975
:100C50000610B5F90400BDE8F04100F009BB000042
:100C6000B8000020B00000209000002068000020A4
:100C70006A0000200000A0420000A0C238B5012197
:100C8000042000F01FFE0121082000F01BFE1020B0
:100C90008DF803003020ADF8000003248DF80240E9
:100CA0006946054800F090F8ADF8004069460348F1
:100CB00000F08AF838BD000000080140000C014037
:100CC000704770B50546284601F043F904B200218B
:100CD000284601F041FA204670BD000070B588B08A
:100CE0000121022000F0E0FD0121042000F0DCFDE4
:100CF0000121042000F0E6FD0121082000F0E2FDC2
:100D000048208DF81F00C020ADF81C0003208DF88E
:100D10001E0007A9284800F057F807A9274800F047
:100D200053F80024ADF81640ADF812404FF6FF70AE
:100D3000ADF81400ADF810408DF81840204D04A90E
:100D4000284601F033FA1F4E04A9304601F02EFA6E
:100D500001A801F053F9ADF804400F24ADF80C40A0
:100D600001A9284601F004F901A9304601F000F973
:100D70000421ADF80410ADF80C4001A9284601F09B
:100D8000F7F801A9304601F0F3F800231A460321D1
:100D9000284601F0C5F800231A460321304601F029
:100DA000BFF80121284601F0AFF80121304601F0DB
:100DB000ABF808B070BD000000080140000C014015
:100DC00000040040000800402DE9F0410022CC78EA
:100DD00004F00F03E40601D58C7823430C784FF020
:100DE0000F0714F0FF0F4FF0010C1CD005680CFA30
:100DF00002F40E882640A64211D1960007FA06F8A2
:100E000025EA080503FA06F848EA0505CE78282EF3
:100E100002D0482E02D002E0446100E00461521C7E
:100E2000082AE4D305600A88FF2A1ED945680022F3
:100E300002F108060CFA06F40E882640A64210D1EC
:100E4000960007FA06F825EA080503FA06F848EAC4
:100E50000505CE78282E00D14461CE78482E00D1E9
:100E60000461521C082AE3D34560BDE8F08141616A
:100E7000704701617047002A01D0016170474161EC
:100E80007047FEE72DE9F74F8EB0054606A807A983
:100E9000CDE900100CAB02AA08A90AA802F002F9D9
:100EA00018B1012011B0BDE8F08FBDF81C00C005DD
:100EB0007ED50298FFF773FB6FF01D042146FFF704
:100EC00049FA06460398FFF76AFB2146FFF742FA04
:100ED00007460498FFF763FB2146FFF73BFA80467D
:100EE0000598FFF75CFB2146FFF734FA81460121A4
:100EF0003046FFF72FFA83464146FFF7BBF982469B
:100F00004FF040413846FFF7B5F904464946FFF730
:100F1000B1F95146FFF756F9FFF7ACFB01F0E2FBE0
:100F20004FF0663A52463D4BFFF7C7FAFFF7B5FB65
:100F3000286001214046FFF70DFA41460D90FFF76A
:100F400099F9054620463946FFF794F92946FFF7F7
:100F50008BF94FF07E51FFF735F9FFF78BFB044615
:100F60000D4658463946FFF785F9834649460D98A0
:100F7000FFF780F95946FFF725F9FFF77BFB22467B
:100F80002B4601F0F7FD5246244BFFF796FAFFF788
:100F900084FB0F99086049464846FFF76BF9044601
:100FA00041464046FFF766F905463946384600E0B7
:100FB00032E0FFF75FF9834631463046FFF75AF9D2
:100FC0005946FFF7FFF82946FFF74EF92146FFF78C
:100FD0004BF9FFF74FFB04460D4649463046FFF7F5
:100FE00049F9064641463846FFF744F93146FFF7CE
:100FF000E9F80121FFF7AEF9FFF73CFB22462B464B
:1010000001F0B8FD5246054BFFF757FAFFF745FBD5
:1010100010990860002045E7022043E766A64C408F
:1010200010B500F03BF803F09BF8D8B9782003F036
:10103000AFFD782002F0A0FF642003F067FD02F00E
:1010400027F8094802F0A4FE02F02EFA40F27310CD
:1010500001F0DEFE642002F06BF903F032FE0120A5
:1010600003F06CFC002010BD5800002070B506464F
:101070000C46432002F058FF0546442002F054FF7E
:1010800040EA05203080472002F04EFF0546482008
:1010900002F04AFF40EA0520208070BD08B50C2010
:1010A0000102009006230422034800F039F90348A6
:1010B00001210160416008BD000C0140A88121426E
:1010C00070B5002400F04CF80D4D0126C5F8AC6158
:1010D000042001F065FEC5F8A861042001F060FE5F
:1010E00007E0641CE4B2FA2C03D900F0A7F8012051
:1010F00070BDD5F82C010028F3D1C5F8A80170BD4A
:10110000008021422DE9F0478146002400F028F8B4
:101110000025124E00274FF00108C6F8A8710420E0
:1011200001F03EFEC6F8A8816006040ED6F82C0138
:1011300008B1641CE4B2042001F032FE6D1CEDB273
:10114000082DEAD3C6F8A871042001F029FE48460C
:1011500000F020F82046BDE8F08700000080214222
:1011600008B50C200090072300224FF400610248CC
:1011700000F0D6F808BD0000000C014008B50C20B6
:101180000422009006235102014800F0C9F808BD6E
:10119000000C014070B50546FFF7F0FF064C002635
:1011A00026606560042001F0FBFD01202060042022
:1011B00001F0F6FD266070BDA88121422DE9F041C5
:1011C0000546FFF7DBFF124E4FF00008C6F8A88176
:1011D00000240127280602D5C6F8AC7101E0C6F844
:1011E000AC816806050E042001F0DAFDC6F8A8718E
:1011F000042001F0D5FDC6F8A881042001F0D0FD3F
:10120000641CE4B2082CE5D3BDE8F041FFF758BFF9
:101210000080214270B5FFF7B1FF074C01206060EC
:101220002060042001F0BCFD00256560042001F071
:10123000B7FD256070BD0000A881214270B5FFF7A1
:101240009DFF094C002020606060042001F0A8FD93
:1012500001252560042001F0A3FD6560BDE8704014
:10126000042001F09DBD0000A8812142FEE700009E
:1012700070B50C46284D00280DDD00F1210080B22C
:1012800000F006FB10212846FFF7F3FD2021284639
:10129000FFF7EDFD15E00DDAC0F1210080B200F09E
:1012A000F7FA20212846FFF7E4FD10212846FFF732
:1012B000DEFD06E0002000F0EBFA30212846FFF7C3
:1012C000D6FD164D002C0EDD04F12304A0B200F073
:1012D000E4FA01212846FFF7CCFD2846BDE870401E
:1012E0000221FFF7C4BD0EDAC4F1230080B200F082
:1012F000D4FA02212846FFF7BCFD2846BDE870401D
:101300000121FFF7B4BD002000F0C2FA2846BDE875
:1013100070400321FFF7ABBD00080140000C014005
:101320002DE9F8438046089E894614461D46264806
:101330000227404407EB9021384603F0B9FC012115
:1013400000F0C0FAADF80090012C02D100208DF819
:10135000030024B9062D02D104208DF8030024B91E
:10136000082D02D128208DF8030024B9072D02D1C1
:1013700048208DF80300022C02D114208DF80300C0
:10138000042C02D110208DF80300032C02D11C2064
:101390008DF80300052C02D118208DF80300092ECA
:1013A00001D18DF802700B2E02D101208DF80200C0
:1013B0000C2E02D103208DF8020069464046FFF74B
:1013C00003FDBDE8F883000000F8FEBF7047000091
:1013D00070B50F23C27801260178002A1ED0144A66
:1013E000126802F4E062C2F5E062120AC2F104047B
:1013F000D3404578A54082781A402A43120101F172
:10140000E02181F80024007800F01F018E4040099F
:10141000800000F1E020C0F8006170BD01F01F0005
:1014200086404809800000F1E020C0F8806170BD6E
:101430000CED00E0024908430249086070470000D3
:101440000000FA050CED00E070B5002500212846EB
:1014500000F0F6F80024002000F09AF9641CE4B2D1
:10146000802CF8D36D1CEDB2082DEFD370BD0000B9
:10147000F8B50121082000F025FA14208DF80300AA
:1014800003208DF802004FF48074ADF800400B4E3D
:1014900069463046FFF798FC6500ADF80050694694
:1014A0003046FFF791FC012229463046FFF7E3FC66
:1014B000012221463046FFF7DEFCF8BD000C01405A
:1014C0002DE9F04707460024134D4FF080094FF4F3
:1014D00080786E1529FA04F23A4041462846FFF713
:1014E000CAFC012231462846FFF7C5FC00223146DE
:1014F0002846FFF7C0FC641CE4B2082CEAD30122A2
:1015000031462846FFF7B7FC31462846BDE8F0478C
:101510000022FFF7B0BC0000000C014070B50122B2
:101520000B4D140221462846FFF7A5FC0122560266
:1015300031462846FFF79FFC002221462846FFF748
:101540009AFC31462846BDE870400022FFF793BC64
:10155000000C014070B50A4D4FF480740022214602
:101560002846FFF788FC012251022846FFF783FC3A
:1015700021462846BDE870400122FFF77CBC0000F0
:10158000000C014010B500214FF47A720020401C7D
:101590009042FCD3491C9142F8D3FFF769FFAE207B
:1015A00000F0E5F8D52000F0E2F8802000F0DFF848
:1015B000A82000F0DCF83F2000F0D9F8D32000F09C
:1015C000D6F8002000F0D3F8402000F0D0F8A12099
:1015D00000F0CDF8C82000F0CAF8DA2000F0C7F813
:1015E000122000F0C4F8812000F0C1F8CF2000F0F4
:1015F000BEF8D92000F0BBF8F12000F0B8F8DB20ED
:1016000000F0B5F8302000F0B2F8A42000F0AFF8F8
:10161000A62000F0ACF88D2000F0A9F8142000F00E
:10162000A6F8AF2000F0A3F8BDE81040FFF70CBF0C
:101630000346012000E05843491E4A1CFBD1704775
:1016400010B50C4640F0B00000F091F8102040EAD0
:10165000141000F08CF804F00F00BDE8104000F00A
:1016600086B800002DE9F0411546491E461ECF0000
:101670007006F9B2000EFFF7E3FF00240E48203D8C
:1016800000EB0515285D00F083F8641CE4B2082C1B
:10169000F8D3012000EB4600F9B2C0B2FFF7D0FF4B
:1016A00000242819007A00F073F8641CE4B2082CB6
:1016B000F7D3BDE8F08100004A5A00082DE9F04751
:1016C00081460E4690461F4600241BE0391B491EEA
:1016D0001020FFF7ADFFB8FBF0F000F00F050A2D6A
:1016E00007D230193035C1B2EAB24846FFF7BAFF27
:1016F00006E030193735C1B2EAB24846FFF7B2FF0B
:10170000641CE4B2BC42E1D3BDE8F0872DE9F047A8
:101710008246894617469846002F05DB2B2249460C
:101720005046FFF79FFF05E02D2249465046FFF740
:1017300099FF7F4200240A2515E0A8EB0401491E09
:101740000A20FFF775FFB7FBF0F6B6FBF5F005FBD7
:10175000106209EB0400401CC1B230325046FFF762
:1017600081FF641CE4B24445E7D3BDE8F08710B5BF
:101770000446FFF7D3FE7820FFF7A2FE0020FFF714
:101780009FFE2046FFF79CFEBDE81040FFF7E2BE3B
:1017900010B50446FFF7C2FE7820FFF791FE402007
:1017A000FFF78EFE2046FFF78BFEBDE81040FFF7E7
:1017B000D1BE000010B50D4C94F90100FEF7FDFEFE
:1017C0004FF033320A4BFEF778FEFEF734FF09493B
:1017D00000B20880084A94F900101170002801DA5C
:1017E0004842107005490020087010BD64000020B8
:1017F0003333FB3F72000020700000206C0000209B
:1018000030B589B00121084600F04EF801210420CE
:1018100000F058F818208DF823000320ADF82000C0
:101820008DF8220008A91948FFF7CEFA4FF080453D
:10183000284600F0F5FB0024ADF81A40ADF816403C
:101840006320ADF81800ADF814408DF81C4005A9D0
:10185000284600F0ABFC01A800F070FC6020ADF859
:101860000400ADF80C400120ADF80600ADF80A40C8
:1018700001A9284600F0DAFB01A9284600F01AFC6D
:101880000121284600F040FB09B030BD00080140AE
:1018900001464FF0804000F05BBC01464FF08040B5
:1018A00000F058BC70470000054A002903D0D169F8
:1018B0000143D1617047D1698143D1617047000014
:1018C00000100240054A002903D09169014391614B
:1018D0007047916981439161704700000010024098
:1018E00010B5264A516801F00C01254B002927D07C
:1018F000042927D0082927D00360516801F0F0019E
:101900000909204B5C5C0168E1404160546804F4C3
:10191000E064240A1C5D21FA04F48460546804F431
:101920006054E40A1B5DD940C160526802F4404231
:10193000920B144B1B1F9A5CB1FBF2F1016110BDBD
:101940000360DAE70360D8E7516801F47011536867
:1019500003F48033022404EB914133B153689B03B9
:1019600007D5094B59430160C7E7074B594301604D
:10197000C3E7034B59430160BFE70000001002407A
:1019800000127A001800002000093D0010B5094837
:1019900090F90100FEF711FE0022074BFEF78DFDC6
:1019A000FEF749FE054908800549002008700549F1
:1019B000087010BD64000020000004407200002088
:1019C000700000206C00002010B5094890F901005B
:1019D000FEF7F3FD0022074BFEF76FFDFEF72BFE2F
:1019E000054908800549002008700549087010BDA8
:1019F00064000020000004407200002070000020FD
:101A00006C0000207047000030B587B001218803CA
:101A1000FFF758FF01210420FFF754FF18208DF82D
:101A20001B004FF40070ADF8180003248DF81A4025
:101A3000204D06A92846FFF7C7F948218DF81B104D
:101A40002915ADF818108DF81A4006A92846FFF799
:101A5000BBF94FF4165002900024ADF814400C204E
:101A6000ADF81200ADF81040ADF80E40ADF80C40E6
:101A7000114D02A9284600F07BFC012240F22551BD
:101A8000284600F059FC4FF4A060FFF7D3FC252155
:101A90008DF8041001218DF807108DF805408DF8A0
:101AA000064001A8FFF794FC0121284600F018FC2D
:101AB00007B030BD0008014000380140AFF300809E
:101AC0000CB50022019200922748016841F4803150
:101AD00001604FF4A063016801F4003100910199A5
:101AE000491C0191009911B901999942F3D10168FA
:101AF000890302D50121009100E00092009901299B
:101B000030D11A490A6842F010020A600A6822F0CD
:101B100003020A600A6842F002020A6041684160FA
:101B200041684160416841F480614160416821F44D
:101B30007C114160416841F4E8114160016841F065
:101B40008071016001688901FCD5416821F00301C1
:101B50004160416841F0020141604168C1F3810187
:101B60000229FAD10CBD0000001002400020024002
:101B700004490020088004490870044901200870C5
:101B80007047000072000020700000206C000020F0
:101B90004FF0E021042804D0086920F00400086117
:101BA0007047086940F00400086170477047000002
:101BB00010B50F48016841F00101016041680D4A0C
:101BC0001140416001680C4A11400160016821F434
:101BD00080210160416821F4FE0141604FF41F0142
:101BE0008160FFF76BFF05494FF00060086010BD92
:101BF000001002400000FFF8FFFFF6FE08ED00E0D5
:101C000070B5048C24F001040484058B048C25F049
:101C1000F3054FF6FF7606EA031313432B43104AEE
:101C200090420ED00F4A90420BD0B0F1804F08D0B6
:101C30000D4A904205D00D4A904202D00C4A904283
:101C400005D124F002020A4342F0010104E024F02D
:101C50000A020A4342F001010383018470BD0000BF
:101C6000002C014000340140000400400008004006
:101C7000000C0040F0B5048C24F010040484068BA2
:101C8000048C4FF6FF7505EA011726F4734605EA42
:101C90000333334305EA02221A43104B98420ED015
:101CA0000F4B98420BD0B0F1804F08D00D4B9842AB
:101CB00005D00D4B984202D00C4B984205D124F030
:101CC0002001394341F0100104E024F0A0030B434C
:101CD00043F0100102830184F0BD0000002C01409C
:101CE000003401400004004000080040000C0040A7
:101CF000F0B5048C24F480740484858B048C4FF636
:101D0000FF7707EA012625F0F30507EA03131343DB
:101D10002B43104A90420ED00F4A90420BD0B0F1A4
:101D2000804F08D00D4A904205D00D4A904202D013
:101D30000C4A904205D124F40071314341F4807182
:101D400004E024F420620A4342F480718383018416
:101D5000F0BD0000002C01400034014000040040B0
:101D600000080040000C0040F0B5048C24F48054BE
:101D70000484868B048C4FF6FF7505EA013726F440
:101D8000734605EA0222324305EA03331343104A3D
:101D900090420ED00F4A90420BD0B0F1804F08D045
:101DA0000D4A904205D00D4A904202D00C4A904212
:101DB00005D124F40051394341F4805104E024F466
:101DC00002420A4342F4805183830184F0BD000043
:101DD000002C014000340140000400400008004095
:101DE000000C00401FB50121C802FFF76BFD1A4C23
:101DF000204600F015F90021ADF80A10ADF80610E4
:101E000040F60F60ADF808001320ADF804008DF81F
:101E10000C1001A9204600F0C9F90121204600F06C
:101E20006DF801221146204600F0F0F84FF4A06052
:101E3000FFF700FB19208DF8000001218DF8031039
:101E40008DF801108DF802106846FFF7C1FA0121E4
:101E5000204600F059F81FBD002C014010B51C4C65
:101E60000121204600F077F800282FD0194A1A499E
:101E70001A48FFF707F81A491A48FFF7F7F81949FF
:101E8000088828300880164908880E380880164AC5
:101E90001078401CC1B2117005290DD300201070BC
:101EA0001248FEF70EFF1249404208801148FEF723
:101EB00008FF114940420880FEF7ECFDFEF772FE74
:101EC0002046BDE81040012100F01BB810BD000005
:101ED000002C0140B4000020B0000020A800002029
:101EE000AC000020B8000020670000200004004083
:101EF00068000020000800406A000020C9430182F9
:101F00007047C94301827047002904D0018841F01D
:101F1000010101807047018821F0010101807047B3
:101F200070B50589048B068C25F007050D434FF627
:101F3000FC410C4040F201110C4326F022064FF602
:101F4000FF7101EA031111433143058104830184C8
:101F500070BD808C704702460020138A0B40928926
:101F60000A40002B02D0002A00D001207047000058
:101F700070B505460C461D48854209D01C4885426F
:101F800006D0B5F1804F03D01A48854200D01A48D8
:101F900020886188A288238960B1042813D008288A
:101FA0001AD02846FFF7E0FEE1882846BDE87040D9
:101FB00000F0F0B82846FFF723FEE1882846BDE888
:101FC000704000F0CBB82846FFF754FEE188284661
:101FD000BDE8704000F0CAB82846FFF789FEE188E6
:101FE0002846BDE8704000F0CDB80000002C01404C
:101FF000003401400004004000080040002101803E
:10200000418001228280C18001817047002A03D073
:1020100082890A438281704782898A43828170471C
:10202000018921F0070101817047000030B5028C61
:1020300022F001020284028C8388048B24F0700455
:1020400024F003050C882C4322F002020D8915436D
:102050004A882A43124DA8420BD0124DA84208D0FC
:10206000114DA84205D0114DA84202D0104DA842F2
:102070000FD122F008054A892A4322F004058A88F4
:102080002A4323F4807323F400738D891D43CB8985
:102090002B4383800483C9888186028430BD00007D
:1020A000002C014000340140004001400044014048
:1020B0000048014070B5028C22F010020284028CAC
:1020C0008388048B24F4E04424F440760D884FF692
:1020D000FF7404EA0525354322F020020E8904EA44
:1020E000061616434A8804EA02123243114EB042E1
:1020F00002D0114EB04217D122F080024E8904EA7C
:102100000616164326F040068A8804EA0212324375
:1021100023F4806323F400638E8904EA86061E4359
:10212000CB8904EA8303334383800583C98801870D
:10213000028470BD002C0140003401400021018068
:1021400041808180C180018141818181C18170474D
:10215000818670470187704781847047028B22F027
:102160000C020283028B0A4302837047028B22F423
:1021700040620283028B4FF6FF7303EA01210A4398
:1021800002837047828B22F00C028283828B0A4387
:1021900082837047828B22F440628283828B4FF667
:1021A000FF7303EA01210A438283704730B5028836
:1021B0001B4C1C4DA0420DD0A8420BD0B0F1804F5B
:1021C00008D0194B984205D0184B984202D0184BB2
:1021D000984203D122F070034A881A43154B984263
:1021E00006D0154B984203D022F44073CA881A4394
:1021F00002808A8882850A880285A0420AD0A84285
:1022000008D00E4A904205D00D4A904202D00D4AA5
:10221000904201D1097A01860121818230BD0000FE
:10222000002C014000340140000400400008004040
:10223000000C00400010004000140040004001402D
:10224000004401400048014010B5FEF7A8F90349D9
:102250000968BDE81040FEF70DB8000088000020B6
:1022600070B5194D40F225563146284600F044F825
:10227000012828D1284600F0D9F8C2B2134C002119
:102280000120237823B1012B07D0022B11D014E0B9
:10229000A52A12D1207061700FE00C486378C01C31
:1022A000C2545B1CDAB26270032A06D3022020708B
:1022B00003E05A2A01D12170A07031462846BDE8BA
:1022C000704000F005B870BD00380140610000208A
:1022D00040F66A120A0A01219140C9430180704701
:1022E000002904D0818941F400518181704781899E
:1022F00021F400518181704770B5002440F66A12C4
:10230000C1F3421301F01F05012606FA05F2012B65
:102310000CD0022B0DD0838A1340090A8E4000880E
:1023200030400BB100B10124204670BD83891340B9
:10233000F3E7038A1340F0E710B540F66A13C1F3E0
:10234000421301F01F040121A140012B07D0022BF1
:1023500007D014303AB102680A43026010BD0C3055
:10236000F8E71030F6E702688A43026010BD00000B
:1023700030B585B004460D46208A4CF6FF71084002
:10238000E98801432182A0894EF6F3110840A9880B
:102390002A8911436A8902431143A181A08A4FF619
:1023A000FF410840A9890143A1826846FFF798FAD6
:1023B0001D48844201D1039800E00298A1890904D4
:1023C00008D500EBC00101EB001029684900B0FB03
:1023D000F1F007E000EBC00101EB00102968890073
:1023E000B0FBF1F06422B0FBF2F109010B096FF0D0
:1023F00018056B4300EB8300A3891D044FF03203E3
:1024000007D503EBC000B0FBF2F000F00700084373
:1024100006E003EB0010B0FBF2F000F00F00084301
:10242000208105B030BD0000003801408088C0F335
:1024300008007047FEE700002DE9F047294E0844E8
:10244000B6F90210401AFEF7B8F8274F274B3A4664
:10245000FEF733F804460D467069FEF7AEF83A46CB
:10246000234BFEF72AF822462B46FDF77FFFFEF7A7
:10247000E2F804467061F1680844F0601D480027E6
:10248000007800B9F760F0688146FEF788F8DFF859
:10249000548008F12C08D8F80410FDF7EBFE05462F
:1024A0002046FEF77CF8D8F80010FDF7E3FE294639
:1024B000FDF788FE014642F21070814500DDF060B4
:1024C0000D48F268824200DAF0600C480C4A00685D
:1024D000904202DA0B4A904200D3F7600846BDE80A
:1024E000F0870000700000209A9999999999C93F46
:1024F0009999E93F6C000020F0D8FFFFB000002060
:102500000000A0420000A0C270B506460846FEF7D3
:1025100046F8094D6968FDF7ADFE0446A5F12000B7
:1025200081683046FDF7A3FE2968FDF7A3FE21462A
:10253000BDE87040FDF746BE90000020490050EA1B
:10254000C12018BF04204A0D18BF40F0010040F21E
:10255000FF72B2EB515F08BF40F00200012808BFD4
:10256000052070472DE9F0414F1E00EBC7010446DE
:10257000D1E9000115461E4637F006020DD02A4665
:102580003346FDF79AFF7F1E04EBC703D3E9002310
:10259000FDF7ECFE37F00602F1D1022F25D0042F13
:1025A00013D0062F18BFBDE8F0812A463346FDF749
:1025B00084FFD4E90A23FDF7D9FE2A463346FDF706
:1025C0007CFFD4E90823FDF7D1FE2A463346FDF708
:1025D00074FFD4E90623FDF7C9FE2A463346FDF70A
:1025E0006CFFD4E90423FDF7C1FE2A463346FDF70C
:1025F00064FFD4E90223FDF7B9FE2A463346FDF70E
:102600005CFFD4E90023BDE8F041FDF7AFBE012235
:10261000FEF7C4B9FDF7AABE0022134610461146C4
:10262000FEF74DB9024A00201107FEF7B7B90000C6
:1026300001FDFFFF02E008C8121F08C1002AFAD1FD
:1026400070477047002001E001C1121F002AFBD132
:10265000704700000149086070470000BC0000207E
:102660002DE9FE4F074688460025684601F0E0F850
:1026700000246FF00F0AE946012657F8240058F8A5
:102680002410401A00D54042FDF789FF5146FDF75E
:1026900061FE59F8241011F0FF4F0ED0FDF71CFE1B
:1026A0004FF07E51FDF7E0FD20F000400A498842DE
:1026B0000BDD06FA04F0054307E008490844084921
:1026C000884202D306FA04F00543641C032CD4DBD1
:1026D0002846BDE8FE8F0000295C0F3E666666C195
:1026E0009A99D9002DE9F04D8D4F21F0004A86B01E
:1026F00005460C46BA452ADBAAEB070028430AD058
:102700008848824501DC1AD1CDB106B02846BDE823
:10271000F04DFFF77CBF844A844B2846FDF7CDFE81
:1027200007460E46824A834B28462146FDF7C5FEE2
:1027300006B03A463346BDE8F04DFDF717BE01201E
:10274000FFF788FF06B0BDE8F04DFFF765BF7A4898
:10275000824542DABAF1795F0BDA2846FFF7EEFEDE
:10276000042808BFFFF75EFF284606B02146BDE8F3
:10277000F08D2A460B461046FDF79FFE8346024623
:102780006E480E460B4606217844FFF7EBFE5A468C
:102790003346FDF792FE804669488A465A463346DC
:1027A00004217844FFF7DEFE5A463346FDF785FEE6
:1027B00000223B46FDF7DAFD02460B4640465146F5
:1027C000FEF77DF82A462346FDF777FE06B02A4637
:1027D0002346BDE8F04DFDF7C9BD284624F0004171
:1027E00000223D463B46FDF765FE4FF0FF32FEF707
:1027F000D5F80646024653480F460B460621784454
:10280000FFF7B0FE32463B46FDF757FECDE900012B
:102810004D4832463B4604217844FFF7A3FE32463A
:102820003B46FDF74AFE00222B46FDF79FFD8346FF
:1028300002913046394602F0BFFA804643480D46C1
:10284000504517DCDDE900015A46029BFEF737F8D8
:1028500042462B46FDF731FE42462B46FDF786FDEC
:102860000122FEF79BF8304A304BFDF720FE304A3C
:10287000304B4CE04FF0000A52460B464046FDF705
:1028800075FDCDE9031052462B4610461946FDF75B
:1028900014FE32463B46FDF70DFEDDE90332FEF73E
:1028A0000EF806460F46DDE900015A46029BFEF788
:1028B00006F883460091012230463946FEF76EF84D
:1028C000194A1A4BFDF7F6FD06460F46012240460F
:1028D0002946FEF763F85A46009BFDF7EEFD3246A7
:1028E0003B46FDF7E4FD06460F46012250462946C9
:1028F000FEF754F80E4DDFF858802A464346FDF7A0
:10290000D9FD32463B46FDF7D5FD2A464346FDF745
:10291000D1FD002CD8BF81F0004106B0BDE8F08D9C
:102920000000F03F0000F07F075C143326A6913CC6
:10293000182D4454FB21F93F0000E03FB43800005B
:10294000CA3800003E380000543800003333EF3FEF
:10295000FB21E93F2DE9F84F04460D4621F00040E8
:1029600000917349814211DC7249884201DC06D131
:102970002CB120462946BDE8F84FFFF748BE6E4807
:10298000002DCCBF6D496E49BDE8F88F6D4981427D
:1029900011DD6D498142D8BF4FF0FF366DDD204615
:1029A0002946FFF7CBFD042808BFFFF73BFE204672
:1029B0002946BDE8F88F6549654F25F000458142FD
:1029C00033DD6449814219DD002632464FF08043F1
:1029D00020462946FDF7CAFC80468A460122204649
:1029E0002946FDF7DBFF00223B46FDF760FD42462E
:1029F0005346FDF764FF04460D463EE001260022E3
:102A0000BA463B4620462946FDF7B0FC80460F46B5
:102A10000022534620462946FDF749FD42463B46E3
:102A2000FDF74DFF04460D4627E04B4981421BDD73
:102A3000DFF828A102260022534620462946FDF74A
:102A40003CFD00223B46FDF791FC80460F460022EC
:102A5000534620462946FDF72AFD42463B46FDF7F0
:102A60002EFF04460D4608E0032622462B46002092
:102A70003B49FDF724FF04460D4622462B461046EF
:102A80001946FDF71AFD8B46824602460B46FDF7B6
:102A900014FD07460246334888460B460621784413
:102AA000FFF760FD52465B46FDF707FD82462E4864
:102AB0008B463A46434605217844FFF753FD3A4694
:102AC0004346FDF7FAFC02460B46002E5046594697
:102AD0000CDAFDF74BFC22462B46FDF7EEFC01B06D
:102AE00022462B46BDE8F04FFDF7E4BCFDF73EFC67
:102AF00022462B46FDF7E1FC1C4A7A4402EBC60352
:102B0000D3E90023FDF7D3FC22462B46FDF7CFFC8B
:102B1000174A7A4402EBC603D3E90023FDF7CAFC47
:102B2000009A002AB8BF81F00041BDE8F88F00008C
:102B3000000010440000F07F182D4454FB21F93FA1
:102B4000FB21F9BF0000DC3F0000203E0000F33F06
:102B50000000F03F0000E63F008003400000F83F27
:102B60000000F0BF5636000014360000B2350000F9
:102B70007A3500002DE9F04D9446CCF1000423F0A5
:102B800000464CEA0404524F46EAD4749A468846FA
:102B900021F00042BC4206D8454240EA050442EA20
:102BA000D474BC4204D9BDE8F04D6246FFF732BD93
:102BB000AAF14055A5F17F6555EA0C040BD002241B
:102BC00004EAAA74434DDFF810E144EAD87452EAEB
:102BD000000B04D00CE0BDE8F04DFFF7BBBE002CAD
:102BE00014BF012CBDE8F08D022C30D0032C32D064
:102BF00056EA0C0B0AD0BE4220D1BA4209D126F0C7
:102C0000804622F080423346114617E000291ADB45
:102C100025E0DFF8C8B0FB44002C04BFDBE900016D
:102C2000BDE8F08D012C02BFDBE9000181F000411D
:102C3000BDE8F08D022C0AD0032C0CD0BA4212D180
:102C4000B8F1000F0BDA23482549BDE8F08D28467E
:102C50002449BDE8F08D28467146BDE8F08D1D4839
:102C60002149BDE8F08D921B12153C2AC4BF1948BA
:102C70001D490EDCBAF1000FBEBF12F13C0F00205F
:102C8000014606DB6246FDF71AFE21F00041FFF720
:102C900061FE002C08BFBDE8F08D012C04BF81F05F
:102CA0000041BDE8F08D114A114B022C07D0FDF711
:102CB000FEFB2A46BDE8F04D0A4BFDF7F8BBFDF7D9
:102CC000F6FB2A46BDE8F04D064BFDF7F3BB0000CE
:102CD0000000F07F182D4454FB2109C00E35000080
:102CE000FB21F9BFFB210940FB21F93F075C1433AD
:102CF00026A6A13C70B50446E07800F0C00500F0BF
:102D00003F006178094EC90707D0C30800F00701EA
:102D1000491C32680AB1184690476078000703D50D
:102D2000716809B1A8098847002070BDC000002063
:102D300010B56FF00400FEF72BFF09480949006841
:102D4000B0FBF1F00849C0B2087000EB4002C2EBE2
:102D5000C0104FF6FF7202EAC000488010BD0000AC
:102D60000000002000127A00280000200B4949884A
:102D700048434FF0E021486100238B61086940F02F
:102D8000010008610869C20701D0C003FAD50869CB
:102D900020F0010008618B617047000028000020CE
:102DA0000B49097848434FF0E021486100238B61CB
:102DB000086940F0010008610869C20701D0C0033A
:102DC000FAD5086920F0010008618B6170470000A6
:102DD0002800002008B500280CD020208DF8000025
:102DE00028208DF8010030208DF8020038208DF861
:102DF000030004E0A32204216846FDF7C4F96A46F3
:102E0000042140F69E2001F01BFF01F09FFB08BD4E
:102E10003EB5044602208DF80000CA208DF801005E
:102E2000E3208DF8020009208DF803006A46042192
:102E3000682001F005FFA3208DF80000610609D588
:102E4000C0218DF80110C8218DF80210C2218DF823
:102E5000031005E08DF801008DF802008DF80300E5
:102E600014F4C07F09D0C4218DF80410CC218DF852
:102E70000510C6218DF8061005E08DF804008DF8C8
:102E800005008DF806008DF807008DF808008DF814
:102E900009006A460A2140F6A72001F0D1FEA007EA
:102EA0004FF0D80503D020208DF8000001E08DF808
:102EB00000506A46012140F6B62001F0C1FEA0068E
:102EC00003D5012000F09AF802E0002000F096F807
:102ED00014F4C07F20D0E0050CD5B2208DF800009E
:102EE0008B208DF80100B6208DF802009B208DF814
:102EF00003000BE0B0208DF8000080208DF8010069
:102F0000B4208DF8020090208DF803006A46042159
:102F100040F6A22001F094FEE0074FF40B6323D0AB
:102F2000F8208DF800006A460121184601F088FE5D
:102F3000FA21072000F0AAFB072000F079FB01200E
:102F400000F092FB642000F053FC4FF4FA7000F0A4
:102F50005FFCC821274800F033FB282000F048FB25
:102F60000A2000F055FB06E08DF800506A4601216A
:102F7000184601F065FEA00703D5D9208DF80000A2
:102F800001E08DF800506A46012140F23D7001F0E9
:102F900057FE600703D5012000F05CF802E0002036
:102FA00000F058F8E00603D50120FFF713FF02E018
:102FB0000020FFF70FFF104D44F00800688101F07A
:102FC000C5FA0020A873600601D50620A87314F482
:102FD000C07F02D0A87B801DA87314F0140F02D00C
:102FE000A87B1030A873A00702D0A87B001DA8738F
:102FF00000203EBD09E3CA02C00000200EB54FF418
:10300000976300280CD00DA0D0E900128068CDE9AC
:10301000001202906A460921184601F011FE0EBD09
:1030200009A0D0E900128068CDE9001202906A463A
:103030000921184601F004FE0EBD0000B8AAB38DA8
:10304000B4980D355D000000B8AAAAAAB088C3C51F
:10305000C700000008B500280CD0C0208DF8000083
:10306000C2208DF80100C4208DF80200C6208DF822
:10307000030004E08B2204216846FDF784F86A46C9
:10308000042140F6982001F0DBFD01F05FFA08BD55
:10309000C8234FF48062024940F6F63001F006B9C9
:1030A000544E00082DE9F04F8DB01646DDE916525A
:1030B000074688460024A146A5F80090DFF860B1D5
:1030C00005A99BF80E0001F0B3F94FF0FF3A18B1D3
:1030D00050460DB0BDE8F08FBBF80A3013F0140F66
:1030E00061D09DF817009DF814109DF8162040EA55
:1030F00001609DF81510090441EA0221084330607F
:103100009DF81B109DF818209DF81A4041EA0261B5
:103110009DF81920120442EA0422114371609DF8BF
:103120001F209DF81C409DF81EC042EA04629DF8D5
:103130001D40240444EA0C242243B2609DF823403D
:103140009DF820C09DF822B044EA0C6C9DF8214007
:10315000240444EA0B244CEA040CC6F80CC01024E6
:103160000014019008140290101403904FEA2C40B0
:10317000049001980299404301FB01010398049ACD
:10318000404302FB02000844A0F17060B0F1007FF0
:1031900005D901F0DBF9A5F80090504699E7288899
:1031A00040F480702880590605A818D50219065DDC
:1031B000517841EA0621A8F80010D178967841EAC2
:1031C0000621A8F802105179127941EA0221A8F8E3
:1031D0000410A41DE4B2298841F00801298013F4E9
:1031E000C07F15D00119065D4A7842EA06223A806E
:1031F000CA788E7842EA06227A804A79097942EAC8
:103200000121B980A41DE4B2298841F07001298010
:10321000990702D02044FFF76DFD002059E7000018
:10322000C000002030B587B00446684600F0F6FEC6
:10323000BDF80000420CC1033C48038903F00300C1
:1032400054F820000490580702D504984042049096
:10325000C3F3C10054F820000590980602D50598E4
:1032600040420590C3F3811054F820000690D80521
:1032700002D50698404206900498A0FB0145C3176A
:1032800003FB015300FB0230830043EA9470049077
:103290000598A0FB0145C31703FB015300FB023057
:1032A000830043EA947005900698A0FB0145C3177C
:1032B00003FB015100FB0210810041EA947006906B
:1032C0000498000E8DF804000498000C8DF8050099
:1032D0000498000A8DF8060004988DF807000598F8
:1032E000000E8DF808000598000C8DF8090005986F
:1032F000000A8DF80A0005988DF80B000698000E5C
:103300008DF80C000698000C8DF80D000698000A48
:103310008DF80E0006988DF80F0001AA0C214FF4CD
:10332000257001F08DFC07B030BD0000C00000200A
:1033300030B585B0044616A1D1E900028968CDE90F
:10334000032102904FF0FF35C82C02D9284605B062
:1033500030BDC820B0FBF4F1491E080A8DF800000A
:103360008DF801106A46022140F2162001F068FC37
:1033700008B12846EBE702AA0C2140F6C12001F073
:103380005FFC08B12846E2E7044884810020DEE7BC
:10339000FEF2ABC4AAF1DFDFBBAFDFDFC00000206D
:1033A0001FB53F49098901F0030250F8222001921C
:1033B0004A0702D5019A52420192C1F3C10250F864
:1033C000222002928A0602D5029A52420292C1F348
:1033D000811250F822000390C80502D5039840429C
:1033E00003903048019981FB00218B0043EA9271E0
:1033F0000191029981FB00218B0043EA92710291B5
:10340000039981FB0001800F40EA8100039001983D
:10341000000E8DF800000198000C8DF80100019855
:10342000000A8DF8020001988DF803006A46042115
:103430004FF4747001F004FC4FF0FF3410B12046DB
:1034400004B010BD0298000E8DF800000298000C28
:103450008DF801000298000A8DF8020002988DF89C
:1034600003006A4604214FF4757001F0E9FB08B1CE
:103470002046E5E70398000E8DF800000398000C45
:103480008DF801000398000A8DF8020003988DF86A
:1034900003006A4604214FF4767001F0D1FBCFE7B8
:1034A000C000002009E3CA0230B587B004463FA03F
:1034B000006804903EA0006803903EA0006802905F
:1034C0003DA00068019004F0030004AB195C8DF886
:1034D0001810C4F3C102995C8DF81910C4F381115E
:1034E0005B5C8DF81A3003AB185C8DF81400985CA7
:1034F0008DF81500585C8DF8160006AA032140F2DD
:10350000264001F09DFB4FF0FF3510B1284607B073
:1035100030BD05AA032140F22A4001F091FB08B119
:103520002846F4E7029806900198059060070BD5AD
:103530009DF8180040F001008DF818009DF8140067
:1035400040F001008DF81400A0060BD59DF819007D
:1035500040F001008DF819009DF8150040F00100C1
:103560008DF81500E0050BD59DF81A0040F001001C
:103570008DF81A009DF8160040F001008DF8160035
:1035800006AA03214FF4886001F05AFB08B12846CF
:10359000BDE705AA032140F2314001F051FB08B11B
:1035A0002846B4E7054804810020B0E74CCD6C0004
:1035B0000CC92C003656760026466600C000002056
:1035C00008B54FF47A7290FBF2F04843010E8DF883
:1035D0000010010C8DF80110010A8DF802108DF811
:1035E00003006A4604214FF4AE7001F029FB08BDC8
:1035F00008B50521B0FBF1F0010A8DF800108DF837
:1036000001006A4602214FF4AD7001F019FB08BDBC
:1036100008B50521B0FBF1F0010A8DF800108DF816
:1036200001006A4602214FF4AC7001F009FB08BDAD
:1036300008B500210091C10701D030210091810718
:1036400004D59DF8001041F00C010091400704D50D
:103650009DF8000040F0030000906A4601214FF4FD
:10366000A47001F0EDFA08BD08B500280BD00428BD
:1036700000D90420401E00906A46012140F24F10FC
:1036800001F0DEFA08BD0120F4E700002DE9FC415D
:103690000546084669074FF0FF3602D0B0F5C86FFF
:1036A00002D93046BDE8FC81FCF782FF4B49FCF7AC
:1036B00013FE0746684600F08FFC9DF800000228C4
:1036C00007D0042814D0082821D010282ED0304646
:1036D000E8E70E213846FCF73DFEFCF798FF84B280
:1036E0003F493846FCF7C6FDFCF791FF80B22BE05E
:1036F0000D213846FCF72EFEFCF789FF84B23949CC
:103700003846FCF7B7FDFCF782FF80B21CE00C21C5
:103710003846FCF71FFEFCF77AFF84B23249384680
:10372000FCF7A8FDFCF773FF80B20DE00B213846D3
:10373000FCF710FEFCF76BFF84B22C493846FCF70F
:1037400099FDFCF764FF80B2210A8DF804108DF812
:103750000540010A8DF806108DF80700E80701AC56
:1037600011D001AA02214FF4EA7001F069FA08B100
:10377000304697E7A21C02214FF4927001F060FAE4
:1037800008B130468EE7A80711D501AA02214FF4EF
:10379000EC7001F055FA08B1304683E7A21C022113
:1037A0004FF4947001F04CFA08B130467AE768079C
:1037B00011D501AA02214FF4EE7001F041FA08B1CF
:1037C00030466FE7A21C02214FF4967001F038FAE0
:1037D00008B1304666E7002064E700000000484377
:1037E000000040460000C045000040450000C044C5
:1037F00008B50521B0FBF1F0010A8DF800108DF835
:1038000001006A4602214FF4EF7001F019FA08BD79
:1038100008B50521B0FBF1F0010A8DF800108DF814
:1038200001006A4602214FF4ED7001F009FA08BD6B
:103830002DE9FC410546264801AB042240680D21D4
:10384000007800F047FB10B10720BDE8FC819DF82F
:1038500007009DF80420C0F3011102F0E00241EAE4
:10386000D2018DF800109DF80520C0F3810102F00F
:10387000E00241EAD2018DF801109DF8061000F037
:10388000030001F0E00140EAD1008DF802000024BD
:103890006E46305D20B10F4845F824000E4F0AE017
:1038A000002045F824000CE055F824003946FCF7C8
:1038B000E1FC45F82400305D401E10F0FF0030555B
:1038C000F2D1641CE4B2032CE3D30020BDE7000076
:1038D0002C0000207B14AE3E1D5A843F2DE9F0479A
:1038E00088B005460C46924601208DF8140000274A
:1038F0008DF81570DFF8B88305AB0222D8F8000008
:10390000817CD8F80400007800F018FB4FF0FF39F4
:1039100018B1484608B0BDE8F087C820FFF726FA7E
:103920008DF81470D8F8000005AB0122C17BD8F8DF
:103930000400007800F002FB08B14846EAE7D8F836
:10394000000005AB01224179D8F80400007800F0AE
:10395000F5FA08B14846DDE7D8F8000005AB0122CA
:10396000817CD8F80400007800F0E8FA08B14846F5
:10397000D0E7D8F8000005AB0122C17DD8F80400DB
:10398000007800F0DBFA08B14846C3E7D8F8000039
:1039900005AB01220179D8F80400007800F0CEFAD6
:1039A00008B14846B6E70C268DF81460D8F8000038
:1039B00005AB01220179D8F80400007800F0BEFAC6
:1039C00008B14846A6E70F20FFF7D0F9D8F828003D
:1039D000407A8DF81400D8F8000005AB01228178F8
:1039E000D8F80400007800F0A9FA08B1484691E739
:1039F000D8F82800007A8DF81400D8F8000005AB3C
:103A000001224178D8F80400007800F097FA08B154
:103A100048467FE7BAF1000F07D0D8F82800807A2F
:103A200040F0E0008DF8140004E0D8F82800807A17
:103A30008DF81400D8F8000005AB01228179D8F880
:103A40000400007800F07AFA08B1484662E7BAF15B
:103A5000000F07D0D8F82800C07A40F0E0008DF8B9
:103A6000140002E018208DF81400D8F8000005AB0F
:103A70000122C179D8F80400007800F05FFA08B19B
:103A8000484647E7BAF1000F02D0C820FFF76EF9A9
:103A900040208DF81400D8F8000005AB0122017910
:103AA000D8F80400007800F049FA08B1484631E738
:103AB00078208DF81400D8F8000005AB0122417978
:103AC000D8F80400007800F039FA08B1484621E738
:103AD0003220FFF74BF98DF81470D8F8000005ABD1
:103AE00001224179D8F80400007800F027FA08B1E3
:103AF00048460FE7D8F8000005AB0222817AD8F8D3
:103B00000400007800F0E6F908B1484602E79DF8A5
:103B100015009DF8141040EA0120B0FBF6F0C6B283
:103B2000AF606F602F60A76067602760002756E076
:103B3000D8F8000005AB0C22C17AD8F80400007850
:103B400000F0C8F908B14846E4E69DF815009DF874
:103B5000141040EA012002B2ADF80C209DF81700C5
:103B60009DF8161040EA012000B2ADF80E009DF855
:103B700019109DF8183041EA032109B2ADF8101070
:103B800023681A442260626810446060A068084498
:103B9000A0609DF81B009DF81A1040EA012000B2B9
:103BA000ADF804009DF81D109DF81C2041EA02218B
:103BB00009B2ADF806109DF81F209DF81E3042EAAC
:103BC000032212B2ADF808202B68184428606868F8
:103BD00008446860A8681044A8607F1CFFB2B74220
:103BE000A6D328688322C117090441EA10410004C2
:103BF0000023FCF797FA32460023FCF793FA28607B
:103C000068688322C117090441EA104100040023B7
:103C1000FCF788FA32460023FCF784FA6860A8684B
:103C20008322C117090441EA104100040023FCF774
:103C300079FA32460023FCF775FAA86020684FF441
:103C40000065C117090441EA104100042A46002317
:103C5000FCF768FA32460023FCF764FA20606068DB
:103C60002A46C117090441EA104100040023FCF769
:103C700059FA32460023FCF755FA6060A0682A46DC
:103C8000C117090441EA104100040023FCF74AFA75
:103C900032460023FCF746FAA060002803DDA0F5B9
:103CA0008030A06002E000F58030A060002031E6A6
:103CB0002C0000202DE9F84F81468A4600252F4828
:103CC0006B46032240680D21007800F003F910B123
:103CD0000720BDE8F88F9DF8000000F01F008DF868
:103CE00000009DF8010000F01F008DF801009DF814
:103CF000020000F01F008DF8020000246F464FF014
:103D0000010859F824005AF82410401A00D54042FE
:103D1000FCF745FC6FF00F01FCF71CFB0646385D15
:103D2000F8B1174ADFF85CB004E059461046FCF7DA
:103D3000A1FA0246385D401E10F0FF003855F4D15C
:103D400011463046FCF7C8FA4FF07E51FCF78CFA6A
:103D500020F000400C4988420BDD08FA04F00543CE
:103D600007E00A483044B0F1D97F02D908FA04F0DC
:103D70000543641C032CC4DB2846AAE72C00002062
:103D80000000C84154E3853F295C0F3E0000E0BEBF
:103D900000B50246104600F00DF80346D01C00F0B6
:103DA00009F843EAC003901D00F004F843EA8010CC
:103DB00080B200BD90F90010002902DD4FF0000034
:103DC000704702DA4FF00400704790F901100029A3
:103DD00002DD4FF00100704702DA4FF00500704736
:103DE00090F90200002802DD4FF00200704702DA6D
:103DF0004FF0060070474FF007007047FDF700FDD9
:103E0000FDF702FEFDF7BEFBFEF792FFFCF766FF33
:103E1000FDF706F9FCF732FFFDF7E4FFDFF8A080BD
:103E2000284D294E294F2A4C41466868FCF722FA52
:103E3000FCF7D4FB0246012103230846FDF766FC8C
:103E40000423B5F9002006210120FDF75FFC0523BE
:103E5000B6F9002001210220FDF758FC0523B7F92F
:103E6000002008210220FDF751FC94F900200223D4
:103E700001210320FDF74AFC94F9012002230521CA
:103E80000320FDF743FC94F90220022309210320BB
:103E9000FDF73CFC94F90020022301210420FDF7EA
:103EA0000DFC94F90120022305210420FDF706FCF6
:103EB00094F90220022309210420FDF7FFFBB3E758
:103EC00000002041AC0000206A00002068000020B3
:103ED000640000202DE9F0410F4616461D464006BD
:103EE000040EFDF797F92046FDF768F93846FDF70F
:103EF00065F9FDF78FF9641CE0B2FDF75FF9002466
:103F0000761E06E00020FDF7FDF805F8010B641CA5
:103F1000E4B2B442F6DB0120FDF7F4F82870FDF7B7
:103F20008DF90020BDE8F08108B501466B460122FD
:103F30006820FFF7CFFF9DF8000008BD2DE9F04194
:103F40000F4616461D464006040EFDF763F920464F
:103F5000FDF734F93846FDF731F9002405E015F88E
:103F6000010BFDF72BF9641CE4B2B442F7D3FDF763
:103F700065F90020BDE8F0812DE9F041002620F030
:103F80000104144D95F82400002802D00020BDE85B
:103F9000F081A97A4FF0FF3839B12F7C2140297484
:103FA000A14200D0464624B901E04046EFE7287D13
:103FB00018B1012000F0C6FE02E0002000F0C2FEB1
:103FC0002CB100F0C3FA10B12F744046DFE7304641
:103FD000DDE700002C0000200F4A517A002908D0AC
:103FE000012909D002290AD003290BD04FF0FF3054
:103FF00070470221017007E00421017004E00821EC
:10400000017001E010210170D17C11B101784900EB
:1040100001700020704700002C000020114A517AE6
:10402000002908D001290AD002290CD003290ED07A
:104030004FF0FF3070474FF4804101800AE041F6B5
:104040009C71018006E04FF48051018002E04FF442
:1040500000610180D17C11B10188490801800020F4
:10406000704700002C0000200249097C01700020EC
:10407000704700002C0000200E49097A002909D061
:1040800001290AD002290CD003290ED00021018079
:1040900000207047FA210180FAE74FF4FA7101809D
:1040A000F6E74FF47A710180F2E74FF4FA6101808C
:1040B000EEE700002C0000200C49097A002908D006
:1040C000012909D002290AD003290BD04FF0FF3073
:1040D00070470749016007E00649016004E00649AE
:1040E000016001E005490160002070472C000020BC
:1040F00000000343000083423333034233338341E0
:104100000F49C97A072917D2DFE801F01604070A18
:104110000D101300BC21018010E0622101800DE030
:104120002A2101800AE01421018007E00A21018090
:1041300004E00521018001E000210180002070479A
:104140002C000020054991F82420002A02D04FF0CD
:10415000FF307047C9890180002070472C00002083
:104160002DE9FC4180208DF800004F4C6B46012268
:104170002068817C60680078FFF7E0FE4FF0FF3632
:1041800010B13046BDE8FC816420FEF7EFFD00254C
:104190008DF8005020686B460122817C60680078B1
:1041A000FFF7CCFE08B13046ECE720686B460622EC
:1041B000817D60680078FFF78DFE08B13046E1E749
:1041C0009DF805009DF80310C007400F01F00101A4
:1041D00040EA41019DF8010000F001000143012780
:1041E00049B1012903D0022903D03046CAE7E77458
:1041F00014E0E57412E020686B460122C178606823
:104200000078FFF767FE08B13046BBE79DF8000075
:1042100000F00F0008B3042821D0E574FF2104F852
:104220000A1F04F8021C04F8011C61704FF6FF70AD
:10423000A080A1712172A77027766576E572A572BC
:10424000E56025616561A576E576A5834FF4FA60A2
:1042500000F0B2FB28B1304694E7304692E7E774AD
:10426000DCE7022000F0A4FA08B130468AE72A20F1
:1042700000F00EFC08B1304684E7322000F046FC26
:1042800008B130467EE70020FFF776FE08B13046E1
:1042900078E7002000F0C6FA08B1304672E7002047
:1042A00000F076FC00206DE72C0000202DE9FF4F88
:1042B00085B005460E461746DFF8A0804FF0FF395F
:1042C00098F82500002803D0484609B0BDE8F08FD3
:1042D0000EB1002425E04846F7E7281B102800DD32
:1042E00010201FFA80FA30198346024651462046B4
:1042F00000F0A6FC08B14846E7E701AA514620466F
:1043000000F0ECF808B14846DFE75846524601A9EC
:10431000FBF74BFF10B16FF00100D6E704EB0A008A
:1043200084B2AC42D9D3380A8DF800008DF8017000
:10433000D8F800006B460222817ED8F8040000788D
:10434000FFF7FCFD08B14846BFE7012088F82500CB
:104350000898A8F826000020B7E700002C000020ED
:104360002DE9F84304464FF0FF37282C02D9384690
:10437000BDE8F8832D4D4FF0070900268CB10120D0
:1043800000F056FB20208DF800004FF00108012CB2
:104390001CD0052C20D88DF80180052000F078FB7A
:1043A00029E0002000F044FB8DF800608DF80190BA
:1043B00028686B460222817C68680078FFF7BEFDA2
:1043C00008B13846D4E72E750020D1E78DF801609A
:1043D000052000F05DFB0EE0142C06D802208DF8BD
:1043E00001000A2000F054FB05E003208DF80100D5
:1043F000142000F04DFB9DF8010009EB80108DF8B2
:10440000010028686B460222817C68680078FFF70B
:1044100095FD08B13846ABE70820A8722E7385F8E1
:1044200014800020FFF7A8FD0020A1E72C00002049
:104430002DE9F843054689461746274E4FF0FF38C9
:1044400096F8240000280DD0B07A68B130686B4629
:104450000222817A70680078FFF73CFD30B1404657
:10446000BDE8F8834046FBE74046F9E79DF80100C8
:104470009DF8001040EA0124AC4203D200203870BD
:104480004046EDE770684188B4EB510F12D93168AE
:1044900000786B46497C0122FFF71CFD08B14046BD
:1044A000DEE79DF80000C00604D500F04FF86FF07D
:1044B0000100D5E73068EAB24B46C17A70680078EF
:1044C000FFF708FD08B14046CAE7B4FBF5F0401E0F
:1044D00038700020C4E700002C0000202DE9F843CC
:1044E0000E4690464FF0FF35B8F1000F10D0164F32
:1044F000B97A79B1010A8DF80010C4B28DF8014083
:10450000A0197C686189884206D92846BDE8F883ED
:104510002846FBE72846F9E738686B460222017E09
:104520002078FFF70BFD08B12846EFE73868F2B2B4
:104530004346417D78680078FFF7CCFC08B12846F7
:10454000E4E70020E2E700002C000020F8B5594D18
:104550004FF0FF36A87A00280CD000240094286879
:104560006B460122C17B68680078FFF7E7FC18B151
:104570003046F8BD3046F8BD28686B4601224179C7
:1045800068680078FFF7DAFC08B13046F8BD2868A3
:104590006B460122017968680078FFF7CFFC08B10B
:1045A0003046F8BD95F8240090B30C2000902868A0
:1045B0006B460122017968680078FFF7BFFC08B1FB
:1045C0003046F8BD3220FEF7D1FBC0200090A87A1B
:1045D000C00701D0E020009028686B4601220179D5
:1045E00068680078FFF7AAFC08B13046F8BD687C1F
:1045F00010B10220009000E0009428686B46012270
:10460000C17B68680078FFF799FC10B13046F8BDAF
:104610000BE0009428686B460122417968680078B5
:10462000FFF78CFCB8B33046F1E70420009028680F
:104630006B460122017968680078FFF77FFC08B1BA
:104640003046E4E7A87C78B9A87AC0070CD060208F
:10465000009028686B460122017968680078FFF7AE
:104660006DFC20B13046D2E740200090F1E73220C7
:10467000FEF77CFB687C10B10120009000E0009404
:1046800028686B460122C17B68680078FFF756FCFA
:1046900010B13046BBE70BE02868064B0122417998
:1046A000686810330078FFF749FC08B13046AEE780
:1046B0000020ACE72C0000202DE9F0438BB08146B0
:1046C00088463A4D95F82400002804D0002000F0D8
:1046D00035F9012600E0002602A8FFF7CDFC04A86A
:1046E000FFF77AFC6846FFF70BFD01A8FFF72AFDEC
:1046F000AF7A03A8FFF7B8FC0024002241464846E1
:10470000FFF7ECF810B1641C022CF6DB022C19D078
:104710000024012205A908A8FFF7E0F810B1641CE5
:10472000022CF6DB022C0FD005A94046FDF798FFBE
:1047300000F0FF0808A94846FFF7BCFAC0B2002401
:1047400020B104E0002407E0002405E00124B8F1D2
:10475000000F01D144F00204FF2028726872E87251
:104760004FF6FF71E981A872287401202873BDF803
:10477000080000F021F99DF8100000F019F8BDF8CC
:10478000000000F085F9BDF8040000F0BFF93846DC
:1047900000F0FEF99DF80C00FFF7EEFB16B10120CA
:1047A00000F0CCF80BB02046BDE8F0832C000020D0
:1047B00038B51B4C4FF0FF35A17A002909D00228EB
:1047C00009D004280AD008280BD010280CD028467D
:1047D00038BD284638BD0020009007E00820009032
:1047E00004E01020009001E018200090607A9DF80D
:1047F0000010B0EBD10F01D1002038BD20686B460E
:104800000122C17960680078FFF798FB08B128465B
:1048100038BD9DF80000C0086072002038BD00005F
:104820002C000020F8B50446434DA87CA04201D1DD
:104830000020F8BD40484FF0FF36D0E90010ACB37F
:10484000097900786B460122FFF744FB08B1304636
:10485000F8BD9DF8000020F02000009028686B460D
:104860000122017968680078FFF768FB08B13046DB
:10487000F8BD0320FEF77AFA0220009095F8220096
:1048800008B18220009095F8230020B19DF8000027
:1048900040F03000009028686B460122017D686876
:1048A0000078FFF74BFBE8B33046F8BDFFE7097926
:1048B00000786B460122FFF70DFB08B13046F4E7A4
:1048C000A87AC00705D09DF8000040F020000090B5
:1048D00004E09DF8000020F02000009028686B465E
:1048E0000122017968680078FFF728FB08B130469B
:1048F000DBE70320FEF73AFA95F8220010B180209A
:10490000009001E00020009095F8230020B19DF870
:10491000000040F03000009028686B46017D686818
:10492000007800E005E00122FFF708FB08B13046FF
:10493000BBE7AC740020B8E72C00002038B51D4C54
:1049400094F82410814201D1002038BD0025F0B137
:1049500094F82500C0B1002000F0F4F90020FFF722
:1049600061FFE08C00F0D2F8009560686B46012290
:1049700000782321FFF7E2FA012084F8240000F0F8
:10498000E1F9FFF7E3FD12E04FF0FF3038BD002002
:1049900000F0D8F9207C009060686B460122007816
:1049A0002321FFF7CBFA84F82450FFF7CFFD002036
:1049B00038BD00002C00002038B51C4C4FF0FF35EE
:1049C000A17A00290CD0FA280CD0B0F5FA7F0CD0CF
:1049D000B0F57A7F0CD0B0F5FA6F0CD0284638BD10
:1049E000284638BD0020009007E00820009004E031
:1049F0001020009001E018200090207A9DF800100F
:104A0000B0EBD10F01D1002038BD20686B460122E8
:104A1000817960680078FFF791FA08B1284638BDBF
:104A20009DF80000C0082072002038BD2C00002036
:104A300038B50446154D95F82300A04201D1002059
:104A400038BD14B13020009001E000200090A87C17
:104A500020B19DF8000040F00200009095F822007F
:104A600020B19DF8000040F08000009028686B465F
:104A70000122017D68680078FFF760FA10B14FF0FD
:104A8000FF3038BD85F82340002038BD2C000020C1
:104A900038B51D4C4FF0FF35A17A002904D0BC2851
:104AA00004D30120009017E0284638BD622802D3C5
:104AB0000220009010E02A2802D3032000900BE08F
:104AC000142802D30420009006E00A2802D305200F
:104AD000009001E006200090E07A9DF800108842E6
:104AE00001D1002038BD20686B46012281786068C2
:104AF0000078FFF723FA08B1284638BD9DF800007A
:104B0000E072002038BD00002C000020F8B50446FB
:104B10001E4D4FF0FF37A87A002804D095F82400E6
:104B200018B13846F8BD3846F8BD287D50B134B1CB
:104B3000282C04D8E0B2FFF713FC0020F8BD0020B9
:104B4000FFF70EFC4FF47A76042C01D2042402E025
:104B5000B44200D93446B6FBF4F0401E00902868F9
:104B60006B460122417868680078FFF7E7F908B1E1
:104B70003846F8BD9DF80000401CB6FBF0F0E88117
:104B80004008FFF785FF0020F8BD00002C00002042
:104B9000F8B5044614F0700F4FF0000602D0012063
:104BA000009004E00CB1009601E040200090234DFD
:104BB0006B4601222868817C68680078FFF7BEF99F
:104BC0004FF0FF3710B1AE723846F8BD9DF80000C7
:104BD00020F0400028730096600601D40420009065
:104BE000A00604D49DF8000040F002000090E0060A
:104BF00004D49DF8000040F001000090200704D488
:104C00009DF8000040F03800009028686B460122B3
:104C1000C17C68680078FFF791F910B1AE72384630
:104C2000F8BD24B1082C02D00020FFF701FFAC72C0
:104C30002E753220FEF79AF80020F8BD2C000020D7
:104C40002DE9F8430E4690464FF0FF35B8F1000FBE
:104C500010D0164FB97A79B1010A8DF80010C4B29C
:104C60008DF80140A0197C686189884206D92846E0
:104C7000BDE8F8832846FBE72846F9E738686B4625
:104C80000222017E2078FFF759F908B12846EFE7A4
:104C90003868F2B24346417D78680078FFF74EF9F4
:104CA00008B12846E4E70020E2E700002C000020DD
:104CB00003460120002201E05843521C8A42FBD3E4
:104CC000704710B588B002A905A8FFF7F5FC0728C2
:104CD00002D0012008B010BD01A8FFF7EDF905983A
:104CE000FBF75DFC01990C46FBF7C4FAFBF776FC79
:104CF00005900698FBF753FC2146FBF7BBFAFBF740
:104D00006DFC06900798FBF74AFC2146FBF7B2FAC8
:104D1000FBF764FC079005A8FEF742FB6846FFF727
:104D20007DF9BDF800000299414302910399414386
:104D3000039104994143049102A8FEF773FA0020FD
:104D4000C8E70000F8B51B4C0023224694F8246005
:104D500006CA5D1E002E11D010B10220009000E0A6
:104D600000931078C97B6B460122FFF7E7F808B182
:104D70002846F8BD9DF80000607419E0A67A26B1B7
:104D800028B1667C1EB10020F8BD2846F8BD10B1E0
:104D90000120009000E000931078C97B6B4601224F
:104DA000FFF7CCF808B12846F8BD9DF80000607404
:104DB0000020F8BD2C0000202DE9F04106460F46EA
:104DC000FBF716FE041E0D4618BF0120284320F0F5
:104DD0000040C0F17F6000F1E040C00F0ED0301CF9
:104DE00018BF0120384320F00040C0F17F6000F17F
:104DF000E040C00F04BF0120FDF72CFC20462946EF
:104E0000BDE8F0816800000476005401F7FD000160
:104E100075191A0C6A231B1C1F207274433B4138FE
:104E2000393A6B6C376F06246D6E7000830000009A
:104E300000080000000100183200050000002041B9
:104E40000000D242295C0F3E9A99993E3333733F5A
:104E5000295C0F3E000070000000002400000002EA
:104E60000003000000650054FFEF0000FA80000B13
:104E700012820001030C30C30E8C8CE914D5400261
:104E800013710F8E3883F8833000F883258EF883F2
:104E90003000F883FFFFFFFF0FFEA9D624000400B7
:104EA0001A8279A10000003CFFFF00000010000002
:104EB00038836FA2003E03304000000002CAE309BD
:104EC0003E800000200000000000000040000000C4
:104ED00060000000000C0000000C186E000006923C
:104EE0000A16C0DFFFFF0256FD8CD377FFE1C496A0
:104EF000E0C5BEAA00000000FFFF0B2B0000165704
:104F0000000003594000000000001DFA00026C1D63
:104F1000000000003FFFDFEB003EB3B6000D22783B
:104F200000002F3C00000000001942B5000039A22B
:104F30000000B365D90E9FC91DCF4C34300000006E
:104F4000500000003BB67AE80064000000C8000092
:104F500000000000100000001000FA921000225E15
:104F6000000D229F0001000000320000FF460000FB
:104F700063D400001000000004D6000004CC000040
:104F800004CC00000000107200000040000000008F
:104F900000000000000600020005000700000000FD
:104FA000006400000000000000000005000500642F
:104FB0000020000000000000000000000000400091
:104FC0000000030000000032F8980000FF650000B8
:104FD000830F0000FF9BFC000000000000000000A9
:104FE00000000000000000000000000000000000C1
:104FF00000000000000000000000000000000000B1
:105000000000100040000000000000060000B26A2E
:10501000000200000001FB830068000000D9FC00D2
:105020007CF1FF830000000000650000006403E8DD
:1050300000640028000000250000000016A0000009
:105040000000100000001000002F0000000001F41C
:105050000000100000280000FFFF4581FFFFFA72EA
:105060000000000000000000004400050005BAC672
:10507000004778A2000000010000000000000600C8
:10508000000000140000254D002F706D000005AEDB
:10509000000C02D000000000000000000000000032
:1050A00000000000001B00000000000000000000E5
:1050B0000000000000640000000800000000000084
:1050C00000000000000000000000000000000000E0
:1050D00000000000000000000000000000000000D0
:1050E00000000000000000000000000000000000C0
:1050F00000000000000000000000000000000000B0
:10510000000000000000000000000000000000009F
:1051100000000000001B0000000000000000000074
:10512000000E000E00000AC700040000000000325C
:10513000FFFFFF9C00000B2B00000002000000019D
:1051400000000064FFE50000000000000000000017
:10515000000000000000000100000000000100004D
:1051600000000000000180000001800000018000BC
:10517000002426D3000000000000000000060010FC
:105180000096003C0000000000000000000000004D
:10519000000000000C0A4E68CDCF77095016675901
:1051A000C619CE82000000000000000000000000D0
:1051B00000000000000000000000000017D784007D
:1051C000030000000000000000000000C7938F9D56
:1051D0001E1B1C1900000000000000000000000061
:1051E000000000000000000000000000020318851D
:1051F0000000400000000003000000030000000069
:10520000000000004000000000000000000000005E
:10521000000000000000000000000000000000008E
:10522000000000000000000000000000000000007E
:105230000000000000000000677DDF7E72902E55A8
:105240004CF6E688000000000000000000000000AE
:1052500000000000D8DCB4B8B0D8B9ABF3F8FAB3AA
:10526000B7BB8E9EAEF132F51BF1B4B8B08097F1AA
:10527000A9DFDFDFAADFDFDFF2AAC5CDC7A90CC92E
:105280002C97F1A989264666B28999A92D557DB03A
:10529000B08AA896365676F1BAA3B4B280C0B8A840
:1052A0009711B28398BAA3F0240844106418B2B9D5
:1052B000B49883F1A329557DBAB5B1A38393F000C7
:1052C0002850F5B2B6AA839328547CF1B9A38293EF
:1052D00061BAA2DADEDFDB819AB9AEF5606870F1FF
:1052E000DABAA2DFD9BAA2FAB9A38292DB31BAA2A2
:1052F000D9BAA2F8DF85A4D0C1BBAD83C2C5C7B8F7
:10530000A2DFDFDFBAA0DFDFDFD8D8F1B8AAB38D24
:10531000B4980D355DB2B6BAAF8C96198F9FA70EB3
:10532000161EB49AB8AA872C547CBAA4B08AB69137
:10533000325676B28494A4C808CDD8B8B4B0F199E6
:1053400082A82D557D98A80E161EA22C547C92A4DE
:10535000F02C5078F184A898C4CDFCD80DDBA8FCC3
:105360002DF3D9BAA6F8DABAA6DED8BAB2B68696BE
:10537000A6D0F3C841DAA6C8F8D8B0B4B882A892CB
:10538000F52C548898F135D9F418D8F1A2D0F8F951
:10539000A884D9C7DFF8F883C5DADF69DF83C1D80D
:1053A000F40114F1A8824EA884F311D182F5D992A8
:1053B000289788F109F41C1CD884A8F3C0F9D1D926
:1053C0009782F129F40DD8F3F9F9D1D982F4C20307
:1053D000D8DEDF1AD8F1A2FAF9A88498D9C7DFF885
:1053E000F8F883C7DADF69DFF883C3D8F40114F172
:1053F00098A8822EA884F311D182F5D9925097886B
:10540000F109F41CD884A8F3C0F8F9D1D99782F136
:1054100049F40DD8F3F9F9D1D982F4C403D8DEDF09
:10542000D8F1AD8898CCA809F9D98292A8F57CF179
:10543000883ACF944A6E98DB6931DAADF2DEF9D85A
:105440008795A8F221D1DAA5F9F417D9F1AE8ED05B
:10545000C0C3AE82C684C3A88595C8A588F2C0F132
:10546000F4010EF18E9EA8C63E56F554F18872F4F2
:105470000115F19845856EF58E9E0488F142985A83
:105480008E9E068869F4011CF1981E1108D0F5045F
:10549000F11E970202983625DBF9D985A5F3C1DA0A
:1054A00085A5F3DFD88595A8F309DAA5FAD8829205
:1054B000A8F578F1881A849F26889821DAF41DF3DC
:1054C000D8879F39D1AFD9DFDFFBF9F40CF3D8FAD5
:1054D000D0F8DAF9F9D0DFD9F9D8F40BD8F3879FEF
:1054E00039D1AFD9DFDFF41DF3D8FAFCA869F9F997
:1054F000AFD0DADEFAD9F88F9FA8F1CCF398DB456C
:10550000D9AFDFD0F8D8F18F9FA8CAF38809DAAFF6
:105510008FCBF8D8F2AD978D0CD9A5DFF9BAA6F3E9
:10552000FAF412F2D8950DD1D9BAA6F3FADAA5F2A7
:10553000C1BAA6F3DFD8F1BAB2B68696A6D0CAF33E
:1055400049DAA6CBF8D8B0B4B8D8AD84F2C0DFF150
:105550008FCBC3A8B2B68696C8C1CBC3F3B0B4880C
:1055600098A821DB718D9D71859521D9ADF2FAD86E
:105570008597A828D9F408D8F28D29DAF405D9F24C
:1055800085A4C2F2D8A88D9401D1D9F411F2D8879C
:1055900021D8F40AD8F28498A8C801D1D9F411D836
:1055A000F3A4C8BBAFD0F2DEF8F8F8F8F8F8F8F8D2
:1055B000D8F1B8F6B5B9B08A95A3DE3CA3D9F8D82E
:1055C0005CA3D9F8D87CA3D9F8D8F8F9D1A5D9DF4C
:1055D000DAFAD8B18530F7D9DED8F830ADDADED8CE
:1055E000F2B48C99A32D557DA083DFDFDFB591A0A8
:1055F000F629D9FBD8A0FC29D9FAD8A0D051D9F8DE
:10560000D8FC51D9F9D879D9FBD8A0D0FC79D9FAEE
:10561000D8A1F9F9F9F9F9A0DADFDFDFD8A1F8F8B4
:10562000F8F8F8ACDEF8ADDE8393AC2C547CF1A82E
:10563000DFDFDFF69D2CDAA0DFD9FADB2DF8D8A862
:1056400050DAA0D0DED9D0F8F8F8DB55F8D8A87831
:10565000DAA0D0DFD9D0FAF8F8F8F8DB7DF8D89CDA
:10566000A88CF530DB38D9D0DEDFA0D0DEDFD8A8BB
:1056700048DB58D9DFD0DEA0DFD0DED8A868DB70E9
:10568000D9DFDFA0DFDFD8F1A888902C547C98A860
:10569000D05C38D1DAF2AE8CDFF9D8B087A8C1C1BE
:1056A000B188A8C6F9F9DA36D8A8F9DA36D8A8F94F
:1056B000DA36D8A8F9DA36D8A8F9DA36D8F78D9DCF
:1056C000ADF818DAF2AEDFD8F7ADFA30D9A4DEF9CA
:1056D000D8F2AEDEFAF983A7D9C3C5C7F1889BA774
:1056E0007AADF7DEDFA4F8849408A797F300AEF252
:1056F0009819A488C6A39488F632DFF28393DB0955
:10570000D9F2AADFD8D8AEF8F9D1DAF3A4DEA7F13E
:10571000889B7AD8F38494AE19F9DAAAF1DFD8A875
:1057200081C0C3C5C7A39283F628ADDED9F8D8A33C
:1057300050ADD9F8D8A378ADD9F8D8F8F9D1A1DA15
:10574000DEC3C5C7D8A18194F818F2B089ACC3C52F
:10575000C7F1D8B8B4B09786A8319B069907AB9724
:1057600028889BF00C201440B0B4B8F0A88A9A287E
:105770005078B79BA82951792470594469386448F6
:1057800031F1BBAB88002C547CF0B38BB8A8042853
:105790005078F1B088B49726A85998BBABB38B0268
:1057A000264666B0B8F08A9CA82951798B29517990
:1057B0008A2470598B2058718A4469388B39406823
:1057C0008A6448318B30496088F1AC002C547CF0FD
:1057D0008CA804285078F1889726A85998AC8C0298
:1057E000264666F0899CA829517924705944693865
:1057F000644831A98809205970AB11384069A8194B
:105800003148608CA83C415C207C00F18798198667
:10581000A86E767EA999882D557DD8B1B5B9A3DF3C
:10582000DFDFAED0DFAAD0DEF2ABF8F9D9B087C4A3
:10583000AAF1DFDFBBAFDFDFB9D8B1F1A3978E608C
:10584000DFB084F2C8F8F9D9DED89385F14AB18384
:10585000A308B5839A0810B79F10D8F1B0BAAEB0BC
:105860008AC2B2B68E9EF1FBD9F41DD8F9D90CF1DB
:10587000D8F8F8AD61D9AEFBD8F40CF1D8F8F8AD92
:1058800019D9AEFBDFD8F416F1D8F8AD8D61D9F493
:10589000F4ACF59C9C8DDF2BBAB6AEFAF8F40BD8BD
:1058A000F1AED0F8AD51DAAEFAF8F1D8B9B1B6A38D
:1058B000839C08B9B1839AB5AAC0FD3083B79F1005
:1058C000B58B93F20202D1ABDADED8F1B080BAAB7D
:1058D000C0C3B284C1C3D8B1B9F38BA391B609B424
:1058E000D9ABDEB0879CB9A3DDF1B38B8B8B8B8BEF
:1058F000B087A3A3A3A3B28BB69BF2A3A3A3A3A336
:10590000A3A3A3A3A3F1B087B59AA3F39BA3A3DC9E
:10591000BAACDFB9A3A3A3A3A3A3A3A3A3A3A3A3E5
:10592000A3A3A3A3D8D8D8BBB3B7F1AAF9DAFFD9F8
:10593000809AAA28B48098A720B79787A86688F08D
:105940007951F1902C870CA781976293F071716067
:1059500085940129517990A5F1284C6C870C9518F4
:105960008578A38390284C6C886CD8F3A28200F2CF
:1059700010A8921980A2F2D926D8F188A84DD9484A
:10598000D896A83980D93CD89580A839A68698D9C8
:105990002CDA87A72CD8A8899519A980D938D8A836
:1059A0008939A980DA3CD8A82EA83990D90CD8A872
:1059B000953198D90CD8A809D9FFD801DAFFD89524
:1059C00039A9DA26FFD890A80D8999A810809821C6
:1059D000DA2ED88999A83180DA2ED8A88696318017
:1059E000DA2ED8A8873180DA2ED8A88292F34180A7
:1059F000F1D92ED8A882F31980F1D92ED882ACF330
:105A0000C0A28022F1A62EA72EA92298A829DAAC3E
:105A1000DEFFD8A2F22AF1A92E8292A8F23180A646
:105A200096F1D900AC8C9C0C30ACDED0DEFFD88C6B
:105A30009CACD010ACDE8092A2F24C82A8F1CAF2EB
:105A400035F19688A6D900D8F1FF000000000000CB
:105A500000000000000000000000000000F800004E
:105A60000000000000333000000000100C06100C95
:105A70000600000000000000000040C07840C07830
:105A80004000043F04043F040400007088FC083018
:105A90000000001820FF211E0000F008F000E018B0
:105AA000000000211C031E211E0000F00888700069
:105AB00000001E2123241927211010160E000000BB
:105AC00000000000000000000000000000E01804DA
:105AD0000200000000071820400000020418E00047
